{
  "_format": "hh3-artifact-1",
  "contractName": "ClaudioLegalAgreement",
  "sourceName": "contracts/ClaudioLegalAgreement.sol",
  "abi": [
    {
      "inputs": [
        {
          "internalType": "address",
          "name": "_claudioAddress",
          "type": "address"
        }
      ],
      "stateMutability": "nonpayable",
      "type": "constructor"
    },
    {
      "inputs": [
        {
          "internalType": "bytes32",
          "name": "caseId",
          "type": "bytes32"
        }
      ],
      "name": "AgreementAlreadyExists",
      "type": "error"
    },
    {
      "inputs": [
        {
          "internalType": "bytes32",
          "name": "caseId",
          "type": "bytes32"
        }
      ],
      "name": "AgreementNotFound",
      "type": "error"
    },
    {
      "inputs": [
        {
          "internalType": "bytes32",
          "name": "caseId",
          "type": "bytes32"
        },
        {
          "internalType": "address",
          "name": "signer",
          "type": "address"
        }
      ],
      "name": "AlreadySigned",
      "type": "error"
    },
    {
      "inputs": [],
      "name": "InvalidAddress",
      "type": "error"
    },
    {
      "inputs": [
        {
          "internalType": "address",
          "name": "sender",
          "type": "address"
        }
      ],
      "name": "NotAuthorizedCreator",
      "type": "error"
    },
    {
      "inputs": [
        {
          "internalType": "bytes32",
          "name": "caseId",
          "type": "bytes32"
        },
        {
          "internalType": "address",
          "name": "signer",
          "type": "address"
        }
      ],
      "name": "NotAuthorizedSigner",
      "type": "error"
    },
    {
      "inputs": [],
      "name": "SameAddress",
      "type": "error"
    },
    {
      "anonymous": false,
      "inputs": [
        {
          "indexed": true,
          "internalType": "bytes32",
          "name": "caseId",
          "type": "bytes32"
        }
      ],
      "name": "AgreementCompleted",
      "type": "event"
    },
    {
      "anonymous": false,
      "inputs": [
        {
          "indexed": true,
          "internalType": "bytes32",
          "name": "caseId",
          "type": "bytes32"
        },
        {
          "indexed": true,
          "internalType": "address",
          "name": "employer",
          "type": "address"
        },
        {
          "indexed": true,
          "internalType": "address",
          "name": "coworker",
          "type": "address"
        }
      ],
      "name": "AgreementCreated",
      "type": "event"
    },
    {
      "anonymous": false,
      "inputs": [
        {
          "indexed": true,
          "internalType": "bytes32",
          "name": "caseId",
          "type": "bytes32"
        },
        {
          "indexed": true,
          "internalType": "address",
          "name": "signer",
          "type": "address"
        }
      ],
      "name": "AgreementSigned",
      "type": "event"
    },
    {
      "inputs": [
        {
          "internalType": "bytes32",
          "name": "",
          "type": "bytes32"
        }
      ],
      "name": "agreements",
      "outputs": [
        {
          "internalType": "address",
          "name": "employer",
          "type": "address"
        },
        {
          "internalType": "address",
          "name": "coworker",
          "type": "address"
        },
        {
          "internalType": "bool",
          "name": "employerSigned",
          "type": "bool"
        },
        {
          "internalType": "bool",
          "name": "coworkerSigned",
          "type": "bool"
        },
        {
          "internalType": "uint256",
          "name": "createdAt",
          "type": "uint256"
        },
        {
          "internalType": "bool",
          "name": "exists",
          "type": "bool"
        }
      ],
      "stateMutability": "view",
      "type": "function"
    },
    {
      "inputs": [],
      "name": "claudioAddress",
      "outputs": [
        {
          "internalType": "address",
          "name": "",
          "type": "address"
        }
      ],
      "stateMutability": "view",
      "type": "function"
    },
    {
      "inputs": [
        {
          "internalType": "string",
          "name": "caseId",
          "type": "string"
        }
      ],
      "name": "computeCaseIdHash",
      "outputs": [
        {
          "internalType": "bytes32",
          "name": "",
          "type": "bytes32"
        }
      ],
      "stateMutability": "pure",
      "type": "function"
    },
    {
      "inputs": [
        {
          "internalType": "string",
          "name": "caseId",
          "type": "string"
        },
        {
          "internalType": "address",
          "name": "employer",
          "type": "address"
        },
        {
          "internalType": "address",
          "name": "coworker",
          "type": "address"
        }
      ],
      "name": "createAgreement",
      "outputs": [],
      "stateMutability": "nonpayable",
      "type": "function"
    },
    {
      "inputs": [
        {
          "internalType": "bytes32",
          "name": "caseIdHash",
          "type": "bytes32"
        },
        {
          "internalType": "address",
          "name": "employer",
          "type": "address"
        },
        {
          "internalType": "address",
          "name": "coworker",
          "type": "address"
        }
      ],
      "name": "createAgreementWithHash",
      "outputs": [],
      "stateMutability": "nonpayable",
      "type": "function"
    },
    {
      "inputs": [
        {
          "internalType": "string",
          "name": "caseId",
          "type": "string"
        }
      ],
      "name": "getAgreement",
      "outputs": [
        {
          "components": [
            {
              "internalType": "address",
              "name": "employer",
              "type": "address"
            },
            {
              "internalType": "address",
              "name": "coworker",
              "type": "address"
            },
            {
              "internalType": "bool",
              "name": "employerSigned",
              "type": "bool"
            },
            {
              "internalType": "bool",
              "name": "coworkerSigned",
              "type": "bool"
            },
            {
              "internalType": "uint256",
              "name": "createdAt",
              "type": "uint256"
            },
            {
              "internalType": "bool",
              "name": "exists",
              "type": "bool"
            }
          ],
          "internalType": "struct ClaudioLegalAgreement.Agreement",
          "name": "",
          "type": "tuple"
        }
      ],
      "stateMutability": "view",
      "type": "function"
    },
    {
      "inputs": [
        {
          "internalType": "bytes32",
          "name": "caseIdHash",
          "type": "bytes32"
        }
      ],
      "name": "getAgreementWithHash",
      "outputs": [
        {
          "components": [
            {
              "internalType": "address",
              "name": "employer",
              "type": "address"
            },
            {
              "internalType": "address",
              "name": "coworker",
              "type": "address"
            },
            {
              "internalType": "bool",
              "name": "employerSigned",
              "type": "bool"
            },
            {
              "internalType": "bool",
              "name": "coworkerSigned",
              "type": "bool"
            },
            {
              "internalType": "uint256",
              "name": "createdAt",
              "type": "uint256"
            },
            {
              "internalType": "bool",
              "name": "exists",
              "type": "bool"
            }
          ],
          "internalType": "struct ClaudioLegalAgreement.Agreement",
          "name": "",
          "type": "tuple"
        }
      ],
      "stateMutability": "view",
      "type": "function"
    },
    {
      "inputs": [
        {
          "internalType": "string",
          "name": "caseId",
          "type": "string"
        },
        {
          "internalType": "address",
          "name": "signer",
          "type": "address"
        }
      ],
      "name": "hasSigned",
      "outputs": [
        {
          "internalType": "bool",
          "name": "",
          "type": "bool"
        }
      ],
      "stateMutability": "view",
      "type": "function"
    },
    {
      "inputs": [
        {
          "internalType": "bytes32",
          "name": "",
          "type": "bytes32"
        },
        {
          "internalType": "address",
          "name": "",
          "type": "address"
        }
      ],
      "name": "hasSignedMapping",
      "outputs": [
        {
          "internalType": "bool",
          "name": "",
          "type": "bool"
        }
      ],
      "stateMutability": "view",
      "type": "function"
    },
    {
      "inputs": [
        {
          "internalType": "bytes32",
          "name": "caseIdHash",
          "type": "bytes32"
        },
        {
          "internalType": "address",
          "name": "signer",
          "type": "address"
        }
      ],
      "name": "hasSignedWithHash",
      "outputs": [
        {
          "internalType": "bool",
          "name": "",
          "type": "bool"
        }
      ],
      "stateMutability": "view",
      "type": "function"
    },
    {
      "inputs": [
        {
          "internalType": "string",
          "name": "caseId",
          "type": "string"
        }
      ],
      "name": "isCompleted",
      "outputs": [
        {
          "internalType": "bool",
          "name": "",
          "type": "bool"
        }
      ],
      "stateMutability": "view",
      "type": "function"
    },
    {
      "inputs": [
        {
          "internalType": "bytes32",
          "name": "caseIdHash",
          "type": "bytes32"
        }
      ],
      "name": "isCompletedWithHash",
      "outputs": [
        {
          "internalType": "bool",
          "name": "",
          "type": "bool"
        }
      ],
      "stateMutability": "view",
      "type": "function"
    },
    {
      "inputs": [
        {
          "internalType": "string",
          "name": "caseId",
          "type": "string"
        }
      ],
      "name": "signAgreement",
      "outputs": [],
      "stateMutability": "nonpayable",
      "type": "function"
    },
    {
      "inputs": [
        {
          "internalType": "bytes32",
          "name": "caseIdHash",
          "type": "bytes32"
        }
      ],
      "name": "signAgreementWithHash",
      "outputs": [],
      "stateMutability": "nonpayable",
      "type": "function"
    },
    {
      "inputs": [],
      "name": "totalAgreements",
      "outputs": [
        {
          "internalType": "uint256",
          "name": "",
          "type": "uint256"
        }
      ],
      "stateMutability": "view",
      "type": "function"
    }
  ],
  "bytecode": "0x60a060405234801561000f575f5ffd5b50604051610fa0380380610fa083398101604081905261002e91610068565b806001600160a01b0381166100565760405163e6c4247b60e01b815260040160405180910390fd5b506001600160a01b0316608052610095565b5f60208284031215610078575f5ffd5b81516001600160a01b038116811461008e575f5ffd5b9392505050565b608051610ee56100bb5f395f8181610142015281816104a101526106c70152610ee55ff3fe608060405234801561000f575f5ffd5b50600436106100f0575f3560e01c806365f7595811610093578063a11c1d5111610063578063a11c1d51146103ce578063cdd82d1d146103e1578063e9dd9d49146103f4578063f4fbbd8e14610407575f5ffd5b806365f75958146101e55780637ac29bdd146101f8578063960804f7146103085780639e1f68c714610335575f5ffd5b8063335195a6116100ce578063335195a61461017c5780634cde9e6b1461018557806353cc93c41461019a5780635bbec5af146101ad575f5ffd5b8063161f7cfd146100f45780632aaa1cf01461011a578063326d65511461013d575b5f5ffd5b610107610102366004610d00565b61041a565b6040519081526020015b60405180910390f35b61012d610128366004610d3f565b61044c565b6040519015158152602001610111565b6101647f000000000000000000000000000000000000000000000000000000000000000081565b6040516001600160a01b039091168152602001610111565b61010760025481565b610198610193366004610d71565b610496565b005b6101986101a8366004610daa565b6106bc565b61012d6101bb366004610e0b565b5f9182526001602090815260408084206001600160a01b0393909316845291905290205460ff1690565b61012d6101f3366004610d00565b61090b565b6102ad610206366004610d3f565b6040805160c0810182525f80825260208201819052918101829052606081018290526080810182905260a0810191909152505f9081526020818152604091829020825160c08101845281546001600160a01b03908116825260018301549081169382019390935260ff600160a01b84048116151594820194909452600160a81b9092048316151560608301526002810154608083015260030154909116151560a082015290565b604051610111919081516001600160a01b039081168252602080840151909116908201526040808301511515908201526060808301511515908201526080808301519082015260a09182015115159181019190915260c00190565b61012d610316366004610e0b565b600160209081525f928352604080842090915290825290205460ff1681565b61038c610343366004610d3f565b5f6020819052908152604090208054600182015460028301546003909301546001600160a01b03928316939282169260ff600160a01b8404811693600160a81b90048116921686565b604080516001600160a01b03978816815296909516602087015292151593850193909352151560608401526080830191909152151560a082015260c001610111565b6101986103dc366004610d00565b610985565b6102ad6103ef366004610d00565b6109bf565b61012d610402366004610e35565b610a8e565b610198610415366004610d3f565b610ae5565b5f828260405160200161042e929190610e7c565b60405160208183030381529060405280519060200120905092915050565b5f818152602081905260408120600381015460ff16801561047857506001810154600160a01b900460ff165b801561048f57506001810154600160a81b900460ff165b9392505050565b336001600160a01b037f000000000000000000000000000000000000000000000000000000000000000016146104e657604051631525f8fd60e21b81523360048201526024015b60405180910390fd5b816001600160a01b03811661050e5760405163e6c4247b60e01b815260040160405180910390fd5b816001600160a01b0381166105365760405163e6c4247b60e01b815260040160405180910390fd5b826001600160a01b0316846001600160a01b0316036105685760405163367558c360e01b815260040160405180910390fd5b5f8581526020819052604090206003015460ff161561059d576040516302fe406360e21b8152600481018690526024016104dd565b6040805160c0810182526001600160a01b03868116825285811660208084019182525f848601818152606086018281524260808801908152600160a089018181528f865295859052988420975188546001600160a01b0319169088161788559451978701805492519151989096166001600160a81b031990921691909117600160a01b911515919091021760ff60a81b1916600160a81b96151596909602959095179092555160028084019190915590516003909201805460ff19169215159290921790915580549161066f83610e8b565b9190505550826001600160a01b0316846001600160a01b0316867f4fbc8792122a29cec5c0438085dbfe15fbe0d8d89b25d8d3f4155b683d5abb0660405160405180910390a45050505050565b336001600160a01b037f0000000000000000000000000000000000000000000000000000000000000000161461070757604051631525f8fd60e21b81523360048201526024016104dd565b816001600160a01b03811661072f5760405163e6c4247b60e01b815260040160405180910390fd5b816001600160a01b0381166107575760405163e6c4247b60e01b815260040160405180910390fd5b826001600160a01b0316846001600160a01b0316036107895760405163367558c360e01b815260040160405180910390fd5b5f868660405160200161079d929190610e7c565b60408051601f1981840301815291815281516020928301205f8181529283905291206003015490915060ff16156107ea576040516302fe406360e21b8152600481018290526024016104dd565b6040805160c0810182526001600160a01b03878116825286811660208084019182525f848601818152606086018281524260808801908152600160a089018181528b865295859052988420975188546001600160a01b0319169088161788559451978701805492519151989096166001600160a81b031990921691909117600160a01b911515919091021760ff60a81b1916600160a81b96151596909602959095179092555160028084019190915590516003909201805460ff1916921515929092179091558054916108bc83610e8b565b9190505550836001600160a01b0316856001600160a01b0316827f4fbc8792122a29cec5c0438085dbfe15fbe0d8d89b25d8d3f4155b683d5abb0660405160405180910390a450505050505050565b5f5f8383604051602001610920929190610e7c565b60408051601f1981840301815291815281516020928301205f81815292839052912060038101549192509060ff16801561096557506001810154600160a01b900460ff165b801561097c57506001810154600160a81b900460ff165b95945050505050565b5f8282604051602001610999929190610e7c565b6040516020818303038152906040528051906020012090506109ba81610af1565b505050565b6040805160c0810182525f80825260208201819052918101829052606081018290526080810182905260a08101919091525f8383604051602001610a04929190610e7c565b60408051601f1981840301815282825280516020918201205f90815280825282902060c08401835280546001600160a01b03908116855260018201549081169285019290925260ff600160a01b83048116151593850193909352600160a81b909104821615156060840152600281015460808401526003015416151560a082015291505092915050565b5f5f8484604051602001610aa3929190610e7c565b60408051601f1981840301815291815281516020928301205f908152600183528181206001600160a01b038716825290925290205460ff169150509392505050565b610aee81610af1565b50565b5f81815260208190526040902060030154819060ff16610b27576040516398394dc360e01b8152600481018290526024016104dd565b5f82815260208190526040902080548391906001600160a01b03163314801590610b5e575060018101546001600160a01b03163314155b15610b855760405163c5ab2c1960e01b8152600481018390523360248201526044016104dd565b5f84815260208181526040808320600183528184203385529092529091205460ff1615610bce57604051638ad5b6b760e01b8152600481018690523360248201526044016104dd565b80546001600160a01b03163303610bf95760018101805460ff60a01b1916600160a01b179055610c0f565b60018101805460ff60a81b1916600160a81b1790555b5f858152600160208181526040808420338086529252808420805460ff19169093179092559051909187917f8da88eddfc3610da580ea46fb6b9ef17717cd3e45052b48b14bf8c37227d664b9190a36001810154600160a01b900460ff168015610c8457506001810154600160a81b900460ff165b15610cb45760405185907f4494f25b296c8608f6c43580e87427d92b155d4085f60824bc7076dd8c1df109905f90a25b5050505050565b5f5f83601f840112610ccb575f5ffd5b50813567ffffffffffffffff811115610ce2575f5ffd5b602083019150836020828501011115610cf9575f5ffd5b9250929050565b5f5f60208385031215610d11575f5ffd5b823567ffffffffffffffff811115610d27575f5ffd5b610d3385828601610cbb565b90969095509350505050565b5f60208284031215610d4f575f5ffd5b5035919050565b80356001600160a01b0381168114610d6c575f5ffd5b919050565b5f5f5f60608486031215610d83575f5ffd5b83359250610d9360208501610d56565b9150610da160408501610d56565b90509250925092565b5f5f5f5f60608587031215610dbd575f5ffd5b843567ffffffffffffffff811115610dd3575f5ffd5b610ddf87828801610cbb565b9095509350610df2905060208601610d56565b9150610e0060408601610d56565b905092959194509250565b5f5f60408385031215610e1c575f5ffd5b82359150610e2c60208401610d56565b90509250929050565b5f5f5f60408486031215610e47575f5ffd5b833567ffffffffffffffff811115610e5d575f5ffd5b610e6986828701610cbb565b9094509250610da1905060208501610d56565b818382375f9101908152919050565b5f60018201610ea857634e487b7160e01b5f52601160045260245ffd5b506001019056fea2646970667358221220755810a0515ae78148a4fb3eece9ae5dbab4f0f98e033c3f9db857dbc7604d1064736f6c634300081c0033",
  "linkReferences": {},
  "deployedLinkReferences": {},
  "immutableReferences": {
    "30": [
      {
        "length": 32,
        "start": 322
      },
      {
        "length": 32,
        "start": 1185
      },
      {
        "length": 32,
        "start": 1735
      }
    ]
  },
  "inputSourceName": "project/contracts/ClaudioLegalAgreement.sol",
  "buildInfoId": "solc-0_8_28-60bdf8d0e552ec5d3a53d88ca0bf2480f6f18423"
}